:0400000058EF00F0C5
:100008005B82FACF01F0FBCF02F0D9CF03F0DACF51
:1000180004F0F2AC12EF00F014EF00F04EEF00F035
:100028009DA819EF00F01BEF00F031EF00F09EA83B
:1000380020EF00F022EF00F031EF00F002D82FEFB0
:1000480000F00500FA6E0101B551FD6EB651FE6E65
:10005800FF6AFA5012004EEF00F09DAA36EF00F04A
:1000680038EF00F04EEF00F09EAA3DEF00F03FEFB2
:1000780000F04EEF00F002D84CEF00F00500FA6EE9
:100088000101B351FD6EB451FE6EFF6AFA501200C1
:100098004EEF00F004C0DAFF03C0D9FF02C0FBFF37
:0C00A80001C0FAFF5B92110063EF22F030
:1010000000244CFC4BEC4B983A1A3E184CEE40AE88
:101010004CA64C9E4C964C8E4C864C7E4C0C4C3EBA
:10102000435374726F6D3A2020202020202020200E
:1010300020252E32666D41200D0A005368756E74AE
:101040002D5370616E6E756E673A20252E32666D77
:1010500056200D0A004C65697374756E673A20203E
:101060002020202020252E32666D57200D0A0042B8
:1010700055532D5370616E6E756E673A2020202592
:101080002E326656200D0A00494E46004E414E0053
:10109000696E66006E616E006C660000000E0001F5
:1010A000A46F000EA36F7FC0B5F080C0B6F081C002
:1010B000B7F082C0B8F0B8BF62EF08F060EF08F098
:1010C00078EF08F0000EA46F010EA36FB5C005F015
:1010D000B6C006F0B7C007F0B8C008F002EC24F0C4
:1010E00005C0B5F006C0B6F007C0B7F008C0B8F04C
:1010F000000E0001BC6F000EBB6FE9C0A7F0EAC094
:10110000A8F0A351A411D8A488EF08F08AEF08F042
:1011100091EF08F0EDA58FEF08F091EF08F0ABEF3D
:1011200008F0A351A411D8A498EF08F09AEF08F0A2
:10113000A0EF08F0000E8A6F2B0E896FA4EF08F065
:10114000000E8A6F2D0E896F89C05DF1BB4BBC2BE1
:10115000A707D8A0A807B5C005F0B6C006F0B7C06D
:1011600007F0B8C008F09AEC1BF005040610D8A4EC
:10117000BCEF08F0BEEF08F015EF09F0BF0E00015C
:10118000846FFF0E856F8351866F876B845186272E
:101190008551872387510AE11A0E865DD8A0D3EFC7
:1011A00008F0D6EF08F0010ED7EF08F0000E8B6FB5
:1011B0008C6B8B518C11D8B4E0EF08F0E2EF08F0A3
:1011C000F0EF08F05D0EBB25056E010EBC21066E2A
:1011D000880E076E100E086E34EC22F0FCEF08F05B
:1011E0005D0EBB25056E010EBC21066E900E076ECE
:1011F000100E086E34EC22F00001FD0EA727FF0E42
:10120000A8237DC017F07EC018F05D0E196E010E88
:101210001A6EA7C01BF0A8C01CF087EC1CF017C00A
:101220007DF018C07EF0A1EF0EF0B5C005F0B6C09D
:1012300006F0B7C007F0B8C008F09AEC1BF00550F4
:101240000610D8A426EF09F028EF09F07FEF09F087
:10125000BF0E0001846FFF0E856F8351866F876B11
:10126000845186278551872387510AE11A0E865DAE
:10127000D8A03DEF09F040EF09F0010E41EF09F071
:10128000000E8D6F8E6B8D518E11D8B44AEF09F020
:101290004CEF09F05AEF09F05D0EBB25056E010E0B
:1012A000BC21066E8C0E076E100E086E34EC22F018
:1012B00066EF09F05D0EBB25056E010EBC21066EC2
:1012C000940E076E100E086E34EC22F00001FD0E35
:1012D000A727FF0EA8237DC017F07EC018F05D0E73
:1012E000196E010E1A6EA7C01BF0A8C01CF087EC87
:1012F0001CF017C07DF018C07EF0A1EF0EF0000EBC
:101300000001BD6F000EBE6F800EBF6F3F0EC06F3D
:10131000000EBA6F000EB96FB5C005F0B6C006F08A
:10132000B7C007F0B8C008F0000E096E000E0A6ED4
:10133000000E0B6E000E0C6E64EC1EF0D8B0A3EF26
:1013400009F0A5EF09F02AEF0AF0C4EF09F0BDC0DB
:101350004CF0BEC04DF0BFC04EF0C0C04FF0000E0C
:10136000506E000E516E200E526E410E536E59ECAF
:1013700013F04CC0BDF04DC0BEF04EC0BFF04FC02A
:10138000C0F00001B94BBA2BB5C071F0B6C072F015
:10139000B7C073F0B8C074F0000E506E000E516EFE
:1013A000200E526E410E536EBDC04CF0BEC04DF0CB
:1013B000BFC04EF0C0C04FF059EC13F04CC075F0F8
:1013C0004DC076F04EC077F04FC078F017EC1BF0B0
:1013D0000001D8B0EEEF09F0F0EF09F0A7EF09F047
:1013E00010EF0AF0BDC033F0BEC034F0BFC035F01E
:1013F000C0C036F0000E376E000E386E200E396E0B
:10140000410E3A6E6FEC15F033C0BDF034C0BEF043
:1014100035C0BFF036C0C0F00001B907D8A0BA0788
:10142000B5C071F0B6C072F0B7C073F0B8C074F058
:10143000BDC075F0BEC076F0BFC077F0C0C078F018
:1014400017EC1BF00001D8A028EF0AF02AEF0AF0F1
:10145000F2EF09F083C00BF00C6A04EC22F00B50A1
:101460000001AA6FAAC0A9F0670EAA19D8A43BEF81
:101470000AF03DEF0AF063EF0AF0EB51EC11D8A44B
:1014800044EF0AF046EF0AF04AEF0AF0000EEC6F64
:10149000010EEB6FECBF57EF0AF0EC5106E1EB05E4
:1014A000D8B055EF0AF057EF0AF05DEF0AF0000EE2
:1014B000A66F060EA56F6CEF0AF0EBC0A5F0ECC0AE
:1014C000A6F06CEF0AF0ECBF68EF0AF06AEF0AF0E2
:1014D00057EF0AF05DEF0AF0670EAA19D8A473EF70
:1014E0000AF075EF0AF0A4EF0AF0BAAF83EF0AF042
:1014F000FC0EB95DFF0EBA59D8A081EF0AF083EF58
:101500000AF0A2EF0AF0FF0E846FFF0E856FA5C0F0
:1015100086F0A6C087F08451862785518723B9516C
:10152000865D8751800A886FBA51800A8859D8A091
:101530009CEF0AF09EEF0AF0A2EF0AF0660EA96F88
:10154000A4EF0AF0650EA96FA5C09BF0A6C09CF0A1
:10155000670EAA19D8A4AFEF0AF0B1EF0AF0C1EFF5
:101560000AF0660EA919D8A4B8EF0AF0BAEF0AF08B
:10157000C3EF0AF0BABFC1EF0AF0BFEF0AF0C3EF42
:101580000AF09B4B9C2B660EA919D8A4CAEF0AF04F
:10159000CCEF0AF0ECEF0AF0BABFD3EF0AF0D1EFCC
:1015A0000AF0DFEF0AF0000EBD6F000EBE6F800E76
:1015B000BF6F3F0EC06F000EBA6F000EB96F670E9F
:1015C000AA19D8B4E6EF0AF0E8EF0AF0ECEF0AF057
:1015D000B9519B27BA519C23000EB46F000EB36F14
:1015E000B5C0ABF0B6C0ACF0B7C0ADF0B8C0AEF0AF
:1015F000BDC09DF0BEC09EF0BFC09FF0C0C0A0F0B7
:101600007DEF0BF0ABC033F0ACC034F0ADC035F0C3
:10161000AEC036F0BDC037F0BEC038F0BFC039F044
:10162000C0C03AF06FEC15F033C04CF034C04DF050
:1016300035C04EF036C04FF03CEC17F04CC0AFF068
:101640004DC0B0F04EC0B1F04FC0B2F0AFC005F029
:10165000B0C006F0B1C007F0B2C008F094EC1AF0C8
:1016600005C0A1F006C0A2F0ABC071F0ACC072F032
:10167000ADC073F0AEC074F0BDC050F0BEC051F04C
:10168000BFC052F0C0C053F0AFC04CF0B0C04DF07E
:10169000B1C04EF0B2C04FF059EC13F04CC075F031
:1016A0004DC076F04EC077F04FC078F03DEC23F09F
:1016B00071C0ABF072C0ACF073C0ADF074C0AEF0EE
:1016C000BDC033F0BEC034F0BFC035F0C0C036F08E
:1016D000000E376E000E386E200E396E410E3A6ED7
:1016E0006FEC15F033C0BDF034C0BEF035C0BFF0B4
:1016F00036C0C0F00001B34BB42B9B51B35DB45165
:10170000800A846F9C51800A8459D8A08AEF0BF01C
:101710008CEF0BF002EF0BF0BDC04CF0BEC04DF0F3
:10172000BFC04EF0C0C04FF0000E506E000E516EA4
:10173000A00E526E400E536E59EC13F04CC0AFF039
:101740004DC0B0F04EC0B1F04FC0B2F0ABC071F0C0
:10175000ACC072F0ADC073F0AEC074F0AFC075F045
:10176000B0C076F0B1C077F0B2C078F017EC1BF0E3
:101770000001D8B0BEEF0BF0C0EF0BF0CAEF0BF0DA
:10178000000EAF6F000EB06F000EB16F000EB26FA3
:10179000F3EF0BF0ABC005F0ACC006F0ADC007F046
:1017A000AEC008F0AFC009F0B0C00AF0B1C00BF095
:1017B000B2C00CF064EC1EF0D8A0E1EF0BF0E3EF48
:1017C0000BF0F3EF0BF00001A1B1E9EF0BF0EBEF41
:1017D0000BF0F3EF0BF0000EAF6F000EB06F000ECA
:1017E000B16F000EB26FB5C005F0B6C006F0B7C05D
:1017F00007F0B8C008F0AFC009F0B0C00AF0B1C03F
:101800000BF0B2C00CF0A2EC0EF005C0ABF006C0BD
:10181000ACF007C0ADF008C0AEF0ABC071F0ACC02A
:1018200072F0ADC073F0AEC074F0000E506E000EDA
:10183000516E200E526E410E536E9DC04CF09EC0F4
:101840004DF09FC04EF0A0C04FF059EC13F04CC0CB
:1018500075F04DC076F04EC077F04FC078F017ECC1
:101860001BF00001D8A037EF0CF039EF0CF061EF5E
:101870000CF0B94BBA2B9DC04CF09EC04DF09FC0F0
:101880004EF0A0C04FF0000E506E000E516E200EB4
:10189000526E410E536E59EC13F04CC09DF04DC08A
:1018A0009EF04EC09FF04FC0A0F0660E0001A91937
:1018B000D8A45DEF0CF05FEF0CF061EF0CF09B4BE8
:1018C0009C2B9DC0BDF09EC0BEF09FC0BFF0A0C0CD
:1018D000C0F0650EA919D8B470EF0CF072EF0CF0DF
:1018E00078EF0CF0B9C099F0BAC09AF07CEF0CF028
:1018F000000E9A6F000E996F000E986F000E976F92
:10190000000E966F000E956F000EB46F000EB36F51
:1019100077EF0DF0ABC033F0ACC034F0ADC035F0B4
:10192000AEC036F0BDC037F0BEC038F0BFC039F031
:10193000C0C03AF06FEC15F033C04CF034C04DF03D
:1019400035C04EF036C04FF03CEC17F04CC0AFF055
:101950004DC0B0F04EC0B1F04FC0B2F0AFC005F016
:10196000B0C006F0B1C007F0B2C008F094EC1AF0B5
:1019700005C0A1F006C0A2F00001EDB9C2EF0CF065
:10198000C4EF0CF0E1EF0CF0A151A211D8A4CBEF01
:101990000CF0CDEF0CF0E1EF0CF0670EAA19D8A413
:1019A000D4EF0CF0D6EF0CF0E1EF0CF09ABFDDEFC6
:1019B0000CF0DBEF0CF0E1EF0CF0954B962B2BEFDE
:1019C0000DF097519811D8A4E8EF0CF0EAEF0CF065
:1019D00014EF0DF09ABFF1EF0CF0EFEF0CF014EFF5
:1019E0000DF05D0EBB25D96E010EBC21DA6E2E0EF8
:1019F000DF6EBB4BBC2BA707D8A0A807000E986FC3
:101A0000010E976F14EF0DF05D0EBB25D96E010E20
:101A1000BC21DA6E300EDF6EBB4BBC2BA707D8A003
:101A2000A8079507D8A0960795519611D8A41BEF43
:101A30000DF01DEF0DF004EF0DF05D0EBB25D96E1E
:101A4000010EBC21DA6EA151300FDF6EBB4BBC2BF7
:101A5000A707D8A0A807ABC071F0ACC072F0ADC0AA
:101A600073F0AEC074F0BDC050F0BEC051F0BFC046
:101A700052F0C0C053F0AFC04CF0B0C04DF0B1C098
:101A80004EF0B2C04FF059EC13F04CC075F04DC0A1
:101A900076F04EC077F04FC078F03DEC23F071C087
:101AA000ABF072C0ACF073C0ADF074C0AEF0BDC0AE
:101AB00033F0BEC034F0BFC035F0C0C036F0000E09
:101AC000376E000E386E200E396E410E3A6E6FEC96
:101AD00015F033C0BDF034C0BEF035C0BFF036C025
:101AE000C0F000019907D8A09A07B34BB42B9B51C3
:101AF000B35DB451800A846F9C51800A8459D8B078
:101B000084EF0DF086EF0DF094EF0DF0BCBF92EF77
:101B10000DF0BC5109E14B0EBB5DD8A092EF0DF06A
:101B200094EF0DF08AEF0CF097519811D8A49BEF29
:101B30000DF09DEF0DF0AEEF0DF0EDA9A2EF0DF061
:101B4000A4EF0DF0AEEF0DF05D0EBB25D96E010ECA
:101B5000BC21DA6E2E0EDF6EBB4BBC2B5D0EBB259F
:101B6000D96E010EBC21DA6E000EDF6E650EA9196A
:101B7000D8A4BDEF0DF0BFEF0DF08FEF0EF0000E0B
:101B8000B46F4F0EB36F5D0EB325D96E010EB42145
:101B9000DA6E000EDF6E000EA46F000EA36FBABFE8
:101BA000D6EF0DF0D4EF0DF0DEEF0DF0000EA46FC8
:101BB000010EA36FB96DBA1FD8B0BA2B000EA66F75
:101BC000020EA56F0FEF0EF0B307D8A0B4075D0E9D
:101BD000B325D96E010EB421DA6EB9C005F0BAC0D2
:101BE00006F0000E086E0A0E076E0CEC1EF0055093
:101BF000300FDF6EB9C005F0BAC006F0000E086EF7
:101C00000A0E076EEAEC1CF005C0B9F006C0BAF087
:101C10000001A507D8A0A607A707D8A0A807B95113
:101C2000BA11D8A416EF0EF018EF0EF0E4EF0DF095
:101C3000A6BF25EF0EF0A65106E1A505D8B023EF0B
:101C40000EF025EF0EF0E4EF0DF0B307D8A0B407C7
:101C5000A351A411D8A42FEF0EF031EF0EF037EFFF
:101C60000EF0000E906F2B0E8F6F3BEF0EF0000EFC
:101C7000906F2D0E8F6F5D0EB325D96E010EB421BE
:101C8000DA6E8FC0DFFFA707D8A0A807B307D8A0D8
:101C9000B407BF0E846FFF0E856F8351866F876B0D
:101CA000845186278551872387510AE11A0E865D64
:101CB000D8A05DEF0EF060EF0EF0010E61EF0EF0B8
:101CC000000E936F946B93519411D8A46AEF0EF0A9
:101CD0006CEF0EF072EF0EF0000E926F650E916FCA
:101CE00076EF0EF0000E926F450E916F5D0EB325EC
:101CF000D96E010EB421DA6E91C0DFFFA707D8A01C
:101D0000A8075D0EBB25056E010EBC21066E5D0E9B
:101D1000B325076E010EB421086E34EC22F07DC0AD
:101D200017F07EC018F05D0E196E010E1A6EA7C076
:101D30001BF0A8C01CF087EC1CF017C07DF018C089
:101D40007EF012000850800B116E08500824136EAC
:101D500007AEADEF0EF0AFEF0EF0B0EF0EF0138068
:101D60001350D8B4B6EF0EF0B8EF0EF0CDEF0EF082
:101D70001328D8A4BEEF0EF0C0EF0EF0C8EF0EF09F
:101D8000000E056E000E066E000E076E000E086E49
:101D9000078E000E086ED5EF0EF0000E056E000ED9
:101DA000066E000E076E000E086E0C50800B126E51
:101DB00011501218D8B4DFEF0EF0E1EF0EF0E2EFA1
:101DC0000EF0118C0C500C24126E0BAEEAEF0EF0DC
:101DD000ECEF0EF0EDEF0EF012801250D8B4F3EFEE
:101DE0000EF0F5EF0EF00AEF0FF01228D8A4FBEF7B
:101DF0000EF0FDEF0EF005EF0FF0000E096E000E75
:101E00000A6E000E0B6E000E0C6E0B8E000E0C6E2A
:101E100012EF0FF0000E096E000E0A6E000E0B6E30
:101E2000000E0C6E1350125CD8B019EF0FF01BEFC0
:101E30000FF042EF0FF011AC20EF0FF022EF0FF098
:101E400024EF0FF0800E111A13C014F012C013F01B
:101E500014C012F005C014F009C005F014C009F058
:101E600006C014F00AC006F014C00AF007C014F04F
:101E70000BC007F014C00BF008C014F00CC008F041
:101E800014C00CF0000E146E135012C00DF00E6A48
:101E90000D5E000E0E5A0EBE57EF0FF00E5009E108
:101EA0001A0E0D5CD8A057EF0FF059EF0FF090EF1E
:101EB0000FF00550061007100810D8A462EF0FF0BD
:101EC00065EF0FF0010E66EF0FF0000E146E000EBE
:101ED000056E000E066E000E076E000E086E12C034
:101EE00013F099EF0FF014A078EF0FF07AEF0FF0E6
:101EF00080EF0FF0D89014300109146E82EF0FF0CC
:101F0000D890143205A087EF0FF089EF0FF08AEF19
:101F10000FF0148E08340832073206320532132AC5
:101F20001250135CD8A097EF0FF099EF0FF073EFFA
:101F30000FF011BC9EEF0FF0A0EF0FF0E0EF0FF0ED
:101F40001350D8A4A6EF0FF0A8EF0FF0B2EF0FF0E8
:101F5000000E056E000E066E000E076E000E086E77
:101F600001EF11F0095005260A5006220B500722F6
:101F70000C50082208A0BFEF0FF0C1EF0FF06DEF7B
:101F800010F014A0C6EF0FF0C8EF0FF0CEEF0FF077
:101F9000D89014300109146ED0EF0FF0D89014329D
:101FA00005A0D5EF0FF0D7EF0FF0D8EF0FF0148E9C
:101FB00008340832073206320532132A6DEF10F06A
:101FC0000950055C0A5006580B5007580850800A03
:101FD0000D6E0C50800A0D58D8B0F1EF0FF0F3EFF2
:101FE0000FF01EEF10F00550095C0D6E06500A58F8
:101FF0000E6E07500B580F6E08500C58106EFF0EE7
:102000000D24056EFF0E0E20066EFF0E0F20076ECC
:10201000FF0E1020086E800E111A146C1450D8A4F4
:1020200014EF10F016EF10F026EF10F0010E052659
:10203000000E06220722082226EF10F00950055E46
:102040000A50065A0B50075A0C50085A05500610F1
:1020500007100810D8A42FEF10F031EF10F066EF42
:1020600010F01450D8A437EF10F039EF10F066EFED
:1020700010F0000E056E000E066E000E076E000ECC
:10208000086E01EF11F0D89005360636073608368F
:1020900014AE4DEF10F04FEF10F050EF10F0058040
:1020A00014A055EF10F057EF10F05BEF10F0D88050
:1020B00014365DEF10F0D89014361350D8B463EF97
:1020C00010F065EF10F066EF10F0130607AE6BEF3F
:1020D00010F06DEF10F043EF10F0000E126E14AE22
:1020E00074EF10F076EF10F08EEF10F014C00DF0DA
:1020F0007F0E0D16D8B47FEF10F081EF10F085EF52
:1021000010F0010E126E8EEF10F005A08AEF10F0A5
:102110008CEF10F08EEF10F081EF10F01250D8B469
:1021200094EF10F096EF10F0C1EF10F0010E0526BD
:10213000000E06220722082208A0A1EF10F0A3EF4C
:1021400010F0C1EF10F005C00DF006C00EF007C092
:102150000FF008C010F0103410320F320E320D3272
:102160000DC005F00EC006F00FC007F010C008F05B
:102170001328D8B4BEEF10F0C0EF10F0C1EF10F08C
:10218000132A1328D8B4C7EF10F0C9EF10F0D1EF1D
:1021900010F01350D8A4CFEF10F0D1EF10F0E3EF10
:1021A00010F0000E056E000E066E000E076E000E9B
:1021B000086E1350D8A4DFEF10F0E1EF10F0E3EF5A
:1021C00010F0000E116E13A0E8EF10F0EAEF10F01F
:1021D000EDEF10F0078EEEEF10F0079ED890133061
:1021E000086E11AEF6EF10F0F8EF10F0F9EF10F006
:1021F000088E05C005F006C006F007C007F008C04D
:1022000008F01200C3C0D9FFC4C0DAFFDECFF6FF6A
:10221000DDCFF7FFF86A0800F550250AD8A413EFC0
:1022200011F015EF11F03CEF13F0C3C0D9FFC4C09B
:10223000DAFFDE2A000EDD22000E0001EA6F000E3A
:10224000E96FE9C0EDF0EAC0EEF0EB69EC69C3C0FC
:10225000D9FFC4C0DAFFDECFF6FFDDCFF7FFF86AA3
:102260000800F5502E0AD8A438EF11F03AEF11F01B
:10227000BAEF11F0000EEC6F000EEB6FC3C0D9FF88
:10228000C4C0DAFFDE2A000EDD22C3C0D9FFC4C0FD
:10229000DAFFDECFF6FFDDCFF7FFF86A0800F55072
:1022A0002A0AD8A456EF11F058EF11F075EF11F08B
:1022B000C3C0D9FFC4C0DAFFDE2A000EDD22C5C0CC
:1022C000D9FFC6C0DAFFDFCFC7F0020EDE26DFCFB0
:1022D000C8F0000EDD22C7C0D9FFC8C0DAFFDECFCC
:1022E000EBF0DDCFECF0BAEF11F0C3C0D9FFC4C002
:1022F000DAFFDECF0CF0DDCF0DF021EC19F00CC0D1
:10230000EBF00DC0ECF08CEF11F0C3C0D9FFC4C0EE
:10231000DAFFDE2A000EDD22D00E0001C76FFF0EAD
:10232000C86FC3C0D9FFC4C0DAFFDECFF6FFDDCF70
:10233000F7FFF86A0800F550C96FCA6BC751C92783
:10234000C851CA23CA510AE10A0EC95DD8A0ABEF31
:1023500011F0AEEF11F0010EAFEF11F0000ECB6FE8
:10236000CC6BCB51CC11D8A4B8EF11F0BAEF11F06F
:1023700085EF11F0C3C0D9FFC4C0DAFFDECFF6FF8E
:10238000DDCFF7FFF86A0800F5500B6E0C6A04EC1D
:1023900022F00B500001D36FD351D8B4D2EF11F01B
:1023A000D4EF11F010EF12F0C3C0D9FFC4C0DAFFB0
:1023B000DECFC7F0DDCFC8F0010EC727000EC8235F
:1023C000C7C0F6FFC8C0F7FFF86A0800F5500B6EEB
:1023D0000C6A04EC22F00B500001D46FD451D8B435
:1023E000F4EF11F0F6EF11F010EF12F0C3C0D9FFC7
:1023F000C4C0DAFFDECFC7F0DDCFC8F0020EC727BA
:10240000000EC823C7C0F6FFC8C0F7FFF86A08006F
:10241000F5500B6E0C6A04EC22F00B500001D56FE6
:10242000660ED319D8A417EF12F019EF12F05AEF75
:1024300012F0C3C0D9FFC4C0DAFFDECFF6FFDDCF94
:10244000F7FFF86A0800F5CFD6F0C3C0D9FFC4C0C3
:10245000DAFFDE2A000EDD22C5C0D9FFC6C0DAFFD2
:10246000DFCFC7F0040EDE26DFCFC8F0000EDD227E
:10247000C7C0D9FFC8C0DAFFDECFCFF0DECFD0F0C3
:10248000DECFD1F0DECFD2F0C1C07DF0C2C07EF091
:10249000CFC07FF0D0C080F0D1C081F0D2C082F038
:1024A000D6C083F04EEC08F07DC0C1F07EC0C2F013
:1024B00058EF13F0D30E056E000E066E980E076EE1
:1024C000100E086E000E0A6E020E096E19EC1CF05A
:1024D00005500610D8A46FEF12F071EF12F003EF61
:1024E00013F0C3C0D9FFC4C0DAFFDECFC7F0DDCF21
:1024F000C8F0010E0001C727000EC823C7C0F6FFB1
:10250000C8C0F7FFF86A0800F5CFD6F0BF0EC76F56
:10251000FF0EC86FC3C0D9FFC4C0DAFFDECFF6FF1D
:10252000DDCFF7FFF86A0800F550C96FCA6BC751D5
:10253000C927C851CA23CA510AE11A0EC95DD8A0D9
:10254000A4EF12F0A7EF12F0010EA8EF12F0000EA8
:10255000CD6FCE6BCD51CE11D8B4B1EF12F0B3EF39
:1025600012F0CDEF12F0C5C0D9FFC6C0DAFFDFCF41
:10257000C7F0040EDE26DFCFC8F0000EDD22C7C094
:10258000D9FFC8C0DAFFDECFCFF0DECFD0F0DECF8C
:10259000D1F0DECFD2F0E5EF12F0C5C0D9FFC6C052
:1025A000DAFFDFCFC7F0040EDE26DFCFC8F0000E63
:1025B000DD22C7C0D9FFC8C0DAFFDECFCFF0DECF43
:1025C000D0F0DECFD1F0DECFD2F0020EC3C0D9FF03
:1025D000C4C0DAFFDE26000EDD22C1C07DF0C2C01D
:1025E0007EF0CFC07FF0D0C080F0D1C081F0D2C0EB
:1025F00082F0D6C083F04EEC08F07DC0C1F07EC002
:10260000C2F058EF13F0C3C0D9FFC4C0DAFFDECF69
:10261000F6FFDDCFF7FFF86A0800F550250AD8A4C9
:1026200014EF13F016EF13F02EEF13F0C3C0D9FF21
:10263000C4C0DAFFDE2A000EDD22000E086E250E71
:10264000076EC1C009F0C2C00AF060EC1FF0000EB6
:102650000001C26F010EC16F58EF13F0C3C0D9FF64
:10266000C4C0DAFFDE2A000EDD22000E0001C26FB8
:10267000000EC16F58EF13F0C3C0D9FFC4C0DAFF1A
:10268000DECFF6FFDDCFF7FFF86A0800F550076EE2
:10269000086AC1C009F0C2C00AF060EC1FF0C3C0F4
:1026A000D9FFC4C0DAFFDE2A000EDD2227EF13F0C7
:1026B00012004F50800B0001646F4F504F246A6F1F
:1026C0004EAE65EF13F067EF13F068EF13F06A8119
:1026D0006A51D8B46EEF13F070EF13F083EF13F07C
:1026E0006A29D8A476EF13F078EF13F080EF13F097
:1026F000000E4C6E000E4D6E000E4E6E000E4F6EB4
:102700004E8E8BEF13F0000E4C6E000E4D6E000ED1
:102710004E6E000E4F6E5350800B641B535053246B
:10272000656F52AE96EF13F098EF13F099EF13F038
:1027300065816551D8B49FEF13F0A1EF13F0B4EFAA
:1027400013F06529D8A4A7EF13F0A9EF13F0B1EFA8
:1027500013F0000E506E000E516E000E526E000E01
:10276000536E528EBCEF13F0000E506E000E516E81
:10277000000E526E000E536E6551D8B4C2EF13F0C6
:10278000C4EF13F0CCEF13F06A51D8A4CAEF13F0E2
:10279000CCEF13F0D6EF13F0000E4C6E000E4D6E22
:1027A000000E4E6E000E4F6E6EEF15F052504C0242
:1027B000F3CF6FF0F4CF70F06F51666F676B686B9B
:1027C000696B70516B6F6C6B6D6B6E6B51504D0222
:1027D000F3CF6FF0F4CF70F06F516627000E6723D0
:1027E0006823692370516B27000E6C236D236E23C1
:1027F00050504E02F3CF6FF0F4CF70F06F51662758
:10280000000E67236823692370516B27000E6C2329
:102810006D236E2368C069F067C068F066C067F01A
:10282000666B50504D02F3CF6FF0F4CF70F06F51E4
:10283000662770516723000E6823000E69235150EC
:102840004C02F3CF6FF0F4CF70F06F5166277051E8
:102850006723000E6823000E692368C069F067C013
:1028600068F066C067F0666B50504C02F3CF6FF0B3
:10287000F4CF70F06F51662770516723000E682304
:10288000000E692352504D02F3CF6FF0F4CF70F079
:102890006F516B2770516C23000E6D23000E6E2359
:1028A00051504E02F3CF6FF0F4CF70F06F516B27A1
:1028B00070516C23000E6D23000E6E2352504E0299
:1028C000F3CF6FF0F4CF70F06F51606F7051616FA4
:1028D000626B636B62C063F061C062F060C061F004
:1028E000606B60516B2761516C2362516D236351A2
:1028F0006E2366C060F067C061F068C062F069C0B6
:1029000063F0190E89EF14F0D890633362336133AA
:102910006033E82E84EF14F060516B2761516C2313
:1029200062516D2363516E2368C069F067C068F01F
:1029300066C067F0666B65516AC060F0616B6027C6
:10294000000E6123820E60256F6FFF0E6121706F94
:10295000BFEF14F0D8906B376C376D376E3769AFB7
:10296000B4EF14F0B6EF14F0B7EF14F06B81D89019
:1029700066376737683769376F07D8A070076DAF5C
:10298000C4EF14F0C6EF14F0AAEF14F0000E656F58
:1029900069AFCDEF14F0CFEF14F0F3EF14F0FF0EAA
:1029A0006615606FFF0E6715616FFF0E6815626F29
:1029B0007F0E6915636F6051611162116311D8B4A4
:1029C000E4EF14F0E6EF14F0EAEF14F0010E656F97
:1029D000F3EF14F06BA1EFEF14F0F1EF14F0F3EF5D
:1029E00014F0E6EF14F06551D8B4F9EF14F0FBEFF2
:1029F00014F01FEF15F0010E6B27000E6C236D23F2
:102A00006E236EA106EF15F008EF15F01FEF15F01D
:102A10006BC060F06CC061F06DC062F06EC063F0BE
:102A20006335633362336133603360C06BF061C020
:102A30006CF062C06DF063C06EF06F4B702B70BFB6
:102A40002AEF15F0705108E16F29D8A02AEF15F090
:102A50002CEF15F036EF15F0000E6B6F000E6C6F5B
:102A6000800E6D6F7F0E6E6F64EF15F070BF43EFD9
:102A700015F0705106E16F05D8B041EF15F043EF46
:102A800015F04FEF15F0000E6B6F000E6C6F000E1F
:102A90006D6F000E6E6F000E646F64EF15F06FC007
:102AA0006AF0FF0E6B17FF0E6C177F0E6D17000E8E
:102AB0006E176AA15EEF15F060EF15F061EF15F08B
:102AC0006D8FD8906A316E6F64516E136BC04CF08D
:102AD0006CC04DF06DC04EF06EC04FF0120036501D
:102AE000800B436E365036244A6E35AE7AEF15F0C1
:102AF0007CEF15F07DEF15F04A804A50D8B483EF93
:102B000015F085EF15F09AEF15F04A28D8A48BEF51
:102B100015F08DEF15F095EF15F0000E336E000EE9
:102B2000346E000E356E000E366E358E000E366E2B
:102B3000A2EF15F0000E336E000E346E000E356EEF
:102B4000000E366E3A50800B431A3A503A244B6EC0
:102B500039AEADEF15F0AFEF15F0B0EF15F04B80DB
:102B60004B50D8B4B6EF15F0B8EF15F0CDEF15F027
:102B70004B28D8A4BEEF15F0C0EF15F0C8EF15F044
:102B8000000E376E000E386E000E396E000E3A6E73
:102B9000398E000E3A6ED5EF15F0000E376E000E2E
:102BA000386E000E396E000E3A6E375038103910FC
:102BB0003A10D8A4DEEF15F0E0EF15F0F8EF15F0BD
:102BC000000E336E000E346E000E356E000E366E43
:102BD000800E35127F0E36124350361233C033F05A
:102BE00034C034F035C035F036C036F03BEF17F066
:102BF0004A50D8A4FEEF15F000EF16F00AEF16F0D9
:102C0000000E336E000E346E000E356E000E366E02
:102C10003BEF17F04B504AC03BF03C6A3B5E000E66
:102C20003C5A7F0E3B24446E000E3C20456E33C060
:102C30003FF034C040F035C041F036C042F0000EE5
:102C4000336E000E346E000E356E000E366E000EC2
:102C5000466E000E476E000E486E000E496E000E66
:102C60004B6E6BEF16F04B50D8B439EF16F03BEFCC
:102C700016F052EF16F0D8903F36403641364236C5
:102C8000D890333634363536363649AE4AEF16F0FC
:102C90004CEF16F04DEF16F03380D890463647369D
:102CA0004836493637503F5C3850405839504158C3
:102CB0003A504258D8A05FEF16F061EF16F06AEF75
:102CC00016F0498C37503F5E3850405A3950415ABF
:102CD0003A50425A4B2A190E4B6471EF16F073EFBB
:102CE00016F033EF16F03F50401041104210D8B4A8
:102CF0007CEF16F07EEF16F096EF16F0468096EF1A
:102D000016F0D890333634363536363649AE8BEF3A
:102D100016F08DEF16F08EEF16F03380D890463611
:102D20004736483649364406D8A0450635AE9BEFAF
:102D300016F09DEF16F081EF16F0000E4B6E49AEC7
:102D4000A4EF16F0A6EF16F0CAEF16F0FF0E461429
:102D50003B6EFF0E47143C6EFF0E48143D6E7F0E17
:102D600049143E6E3B503C103D103E10D8B4BBEFB2
:102D700016F0BDEF16F0C1EF16F0010E4B6ECAEF64
:102D800016F033A0C6EF16F0C8EF16F0CAEF16F033
:102D9000BDEF16F04B50D8B4D0EF16F0D2EF16F0CE
:102DA000F6EF16F0010E3326000E342235223622BD
:102DB00036A0DDEF16F0DFEF16F0F6EF16F033C0B9
:102DC0003BF034C03CF035C03DF036C03EF03E3400
:102DD0003E323D323C323B323BC033F03CC034F0FB
:102DE0003DC035F03EC036F0444A452A45BE01EFAD
:102DF00017F0455008E14428D8A001EF17F003EF81
:102E000017F00EEF17F0000E456E4468000E336E9B
:102E1000000E346E000E356E000E366E45BE1BEF92
:102E200017F0455006E14404D8B019EF17F01BEF36
:102E300017F029EF17F0000E456E000E446E000EDD
:102E4000336E000E346E000E356E000E366E000EC0
:102E5000436E44C04AF04AA030EF17F032EF17F04B
:102E600035EF17F0358E36EF17F0359ED8904A3093
:102E7000366EECEF15F0120046C166F047C167F000
:102E800048C168F049C169F04CC066F04DC067F0B8
:102E90004EC068F04FC069F0810E506EFF0E516E4B
:102EA00066C052F067C053F068C054F069C055F076
:102EB000180E60EF17F0D890553254325332523218
:102EC000E82E5BEF17F0525050240001646F000EA3
:102ED0005120656F65BF76EF17F0655109E1170E58
:102EE000645DD8A076EF17F078EF17F082EF17F057
:102EF0004CC04CF04DC04DF04EC04EF04FC04FF0A6
:102F000046EF18F065BF87EF17F089EF17F0FAEF7B
:102F100017F064C050F0FF0E516EFF0E526E7F0E20
:102F2000536E000E546E506698EF17F0A0EF17F036
:102F300054345432533252325132502E93EF17F0F0
:102F400051C060F052C061F053C062F054C063F0F1
:102F5000000160516615506E61516715516E6251E6
:102F60006815526E63516915536E505051105210CE
:102F70005310D8A4BEEF17F0C0EF17F0C2EF17F050
:102F800078EF17F066C050F067C051F068C052F09B
:102F900069C053F0200ED2EF17F0D890533252325E
:102FA00051325032E82ECDEF17F0505051105210E0
:102FB0005310D8B4DEEF17F0E0EF17F0E8EF17F09A
:102FC0006051662761516723625168236351692309
:102FD000601D506E611D516E621D526E631D536EF9
:102FE0005050661751506717525068175350691761
:102FF0003EEF18F066C050F067C051F068C052F064
:1030000069C053F0200E0AEF18F0D89053325232B4
:1030100051325032E82E05EF18F050505110521036
:103020005310D8A416EF18F018EF18F022EF18F08C
:10303000000E666F000E676F000E686F000E696FFE
:103040003EEF18F0D8906635506E6735516E683592
:10305000526E6935536E5050511052105310D8B4FF
:1030600034EF18F036EF18F03EEF18F0000E666FF0
:10307000000E676F800E686FBF0E696F66C04CF000
:1030800067C04DF068C04EF069C04FF012002D6E61
:103090002D50D8B44EEF18F050EF18F072EF18F032
:1030A00028BE57EF18F055EF18F072EF18F025C052
:1030B00029F026C02AF027C02BF028C02CF0291EAA
:1030C0002A1E2B1E2C1E292A000E2A222B222C22DD
:1030D00029C02FF02AC030F02BC031F02CC032F0C4
:1030E0007AEF18F025C02FF026C030F027C031F05D
:1030F00028C032F02550261027102810D8A483EFBE
:1031000018F085EF18F08FEF18F0000E256E000E06
:10311000266E000E276E000E286E20EF19F0960E18
:103120002E6E99EF18F02E2AD8903232313230328A
:103130002F32000E2F14296E000E30142A6E000E4E
:1031400031142B6EFE0E32142C6E29502A102B10C7
:103150002C10D8A4AEEF18F0B0EF18F093EF18F0E1
:10316000BEEF18F02E2A010E2F26000E302231223B
:103170003222D8903232313230322F32000E2F14B8
:10318000296E000E30142A6E000E31142B6EFF0EC5
:1031900032142C6E29502A102B102C10D8A4D3EFE7
:1031A00018F0D5EF18F0B2EF18F0DDEF18F02E069A
:1031B000D8902F3630363136323631BEE2EF18F045
:1031C000E4EF18F0ECEF18F0020E2E60EAEF18F0C2
:1031D000ECEF18F0D7EF18F02EB0F1EF18F0F3EF96
:1031E00018F0F4EF18F0319ED8902E322EC029F04E
:1031F0002A6A2B6A2C6A29C02CF02B6A2A6A296A4F
:1032000029502F122A5030122B5031122C503212CA
:103210002D50D8B40EEF19F010EF19F018EF19F087
:1032200028BE17EF19F015EF19F018EF19F0328ECC
:103230002FC025F030C026F031C027F032C028F072
:103240001200000E1A6E000E196E000E136E000EA4
:10325000126E2DEF19F00C4A0D2A010E186E0CC0DB
:10326000F6FF0DC0F7FFF86A0800F550200AD8B441
:103270003CEF19F03EEF19F05CEF19F0F70E0E6E0F
:10328000FF0E0F6E0CC0F6FF0DC0F7FFF86A0800C6
:10329000F550106E116A0E5010260F501122115069
:1032A00009E1050E105CD8A058EF19F05AEF19F09B
:1032B0005CEF19F0000E186E18C014F0156A145067
:1032C0001510D8A466EF19F068EF19F02BEF19F07C
:1032D00072EF19F0000E136E010E126E0C4A0D2AD9
:1032E000A9EF19F00CC0F6FF0DC0F7FFF86A08004F
:1032F000F5500E6E0F6A0F50000AD8B482EF19F025
:10330000A9EF19F00E502B0AD8B46EEF19F0060A87
:10331000D8B46AEF19F0A9EF19F019C005F01AC076
:1033200006F0000E086E0A0E076E20EC25F00CC0A9
:10333000F6FF0DC0F7FFF86A0800F550055E000EB5
:10334000065A300E0524196E000E06201A6E6EEF16
:1033500019F0D00E0E6EFF0E0F6E0CC0F6FF0DC0F2
:10336000F7FFF86A0800F550106E116A0E5010262B
:103370000F50112211500AE10A0E105CD8A0C3EFC1
:1033800019F0C6EF19F0010EC7EF19F0000E166E16
:10339000176A16501710D8A4D0EF19F0D2EF19F011
:1033A0008DEF19F012501310D8A4D9EF19F0DBEFFC
:1033B00019F0E9EF19F019C00EF01AC00FF00E1E47
:1033C0000F1E0E4A0F2A0EC00CF00FC00DF0EDEFCD
:1033D00019F019C00CF01AC00DF01200CFEC25F056
:1033E000060E0001E26F130EE16FAD0EE82EFED760
:1033F000E12FFCD7E22FFAD700F000F085EC26F0A1
:103400003AEC24F0F28EF28CEAEC22F071C056F124
:1034100072C057F173C058F174C059F12DEC21F00E
:1034200071C052F172C053F173C054F174C055F1C0
:1034300035EC20F071C04EF172C04FF173C050F105
:1034400074C051F1B9EC1EF071C0E3F072C0E4F049
:1034500073C0E5F074C0E6F0E3C033F0E4C034F0CC
:10346000E5C035F0E6C036F0000E376E000E386E5F
:10347000200E396E410E3A6E6FEC15F033C0E3F05A
:1034800034C0E4F035C0E5F036C0E6F03B0E010193
:10349000B76F100EB86F56C1B9F157C1BAF158C124
:1034A000BBF159C1BCF10CEC25F06F0E0101B76FF7
:1034B000100EB86F52C1B9F153C1BAF154C1BBF18A
:1034C00055C1BCF10CEC25F0550E0101B76F100E83
:1034D000B86F4EC1B9F14FC1BAF150C1BBF151C182
:1034E000BCF10CEC25F0210E0101B76F100EB86F86
:1034F000E3C0B9F1E4C0BAF1E5C0BBF1E6C0BCF18C
:103500000CEC25F0060E0001E26F130EE16FAD0E1C
:10351000E82EFED7E12FFCD7E22FFAD700F000F01B
:1035200004EF1AF058EF00F0073408340E6E0E5016
:10353000D8A49DEF1AF09FEF1AF0A9EF1AF0000E31
:10354000056E000E066E000E076E000E086E16EF7A
:103550001BF005C009F006C00AF007C00BF008C058
:103560000CF0200EB9EF1AF0D8900C320B320A3260
:103570000932E82EB4EF1AF009500D6E078EFF0ED7
:103580000516FF0E0616FF0E0716000E0816960EFD
:103590000E5E0EBED0EF1AF0CEEF1AF0E6EF1AF084
:1035A0000E50800A970FD8B0D8EF1AF0DAEF1AF061
:1035B000DCEF1AF09FEF1AF0D8900832073206328B
:1035C00005320E3EDCEF1AF0FEEF1AF01F0E0E640D
:1035D000ECEF1AF0EEEF1AF0F6EF1AF09FEF1AF098
:1035E000D89005360636073608360E060E50D8A493
:1035F000FCEF1AF0FEEF1AF0F0EF1AF00D50D8B40D
:1036000004EF1BF006EF1BF00EEF1BF0081E071E69
:10361000061E056C000E06220722082205C005F0D2
:1036200006C006F007C007F008C008F01200000E40
:1036300000017115796F000E72157A6F800E731587
:103640007B6F7F0E74157C6F79517A117B117C1121
:10365000D8A42DEF1BF02FEF1BF037EF1BF0000E5F
:10366000716F000E726F000E736F000E746F000E9C
:103670007515796F000E76157A6F800E77157B6F52
:103680007F0E78157C6F79517A117B117C11D8A44B
:103690004CEF1BF04EEF1BF056EF1BF0000E756F5A
:1036A000000E766F000E776F000E786F74AF5BEFD1
:1036B0001BF05DEF1BF066EF1BF0716D721FD8B051
:1036C000722B731FD8B0732B800E745778AF6BEFCB
:1036D0001BF06DEF1BF076EF1BF0756D761FD8B009
:1036E000762B771FD8B0772B800E7857000E711B82
:1036F000000E721B000E731B800E741B000E751BD8
:10370000000E761B000E771B800E781B7551715DC5
:10371000765172597751735978517459D8B093EFE3
:103720001BF095EF1BF098EF1BF0D89099EF1BF072
:10373000D88012004AC10FF04BC110F04CC111F0FB
:103740004DC112F005C00FF006C010F007C011F017
:1037500008C012F00FC009F010C00AF011C00BF041
:1037600012C00CF0180EBAEF1BF0D8900C320B32CE
:103770000A320932E82EB5EF1BF009500D6E0E6AC1
:103780000D500E10D8A4C7EF1BF0C9EF1BF0E9EFE6
:103790001BF0D8900F34096E10340A6E11340B6E82
:1037A00012340C6E09500A100B100C10D8A4DBEF69
:1037B0001BF0DDEF1BF0E3EF1BF0000E066E020EB8
:1037C000056E18EF1CF0000E066E030E056E18EF66
:1037D0001CF00D280E10D8A4F0EF1BF0F2EF1BF038
:1037E00014EF1CF00FC009F010C00AF011C00BF06C
:1037F00012C00CF0090ED89009360A360B360C367A
:10380000E82EFBEF1BF009500A100B100C10D8B477
:103810000CEF1CF00FEF1CF0010E10EF1CF0000E6F
:10382000056E066A18EF1CF0000E066E040E056E9B
:10383000120005C00CF006C00DF007C00EF008C065
:103840000FF00906D8A00A06092806E10A28D8A41C
:103850002CEF1CF02EEF1CF03BEF1CF0000E066E60
:10386000000E056E86EF1CF00C4A0D2A0E4A0F2A38
:103870000906D8A00A060CC0D9FF0DC0DAFFDF5038
:10388000D8B445EF1CF047EF1CF074EF1CF00EC0ED
:10389000F6FF0FC0F7FFF86A0800F5500009D8B42A
:1038A00054EF1CF056EF1CF074EF1CF009500A1096
:1038B000D8B45DEF1CF05FEF1CF074EF1CF00CC08F
:1038C000D9FF0DC0DAFFDF500B6E0EC0F6FF0FC040
:1038D000F7FFF86A0800F5500B18D8B472EF1CF027
:1038E00074EF1CF034EF1CF00CC0D9FF0DC0DAFFF0
:1038F000DF500B6E0EC0F6FF0FC0F7FFF86A08002E
:10390000F5500B5C056E066AD8A006061200000191
:10391000EDA18DEF1CF08FEF1CF099EF1CF019C09A
:1039200010F01AC011F017C012F018C013F061ECBB
:1039300023F01CBE9EEF1CF0A0EF1CF0A6EF1CF0C5
:103940001BC020F01CC021F0AAEF1CF0000E216E5D
:10395000000E206E000E1F6E000E1E6EBCEF1CF0DF
:10396000000E086E200E076E17C009F018C00AF08E
:1039700060EC1FF01E4A1F2A20501E5C1F50800A58
:103980001D6E2150800A1D58D8A0C9EF1CF0CBEF46
:103990001CF0B0EF1CF00001EDB1D1EF1CF0D3EF43
:1039A0001CF0DDEF1CF019C010F01AC011F017C0A8
:1039B00012F018C013F061EC23F019C005F01AC022
:1039C00006F056EC24F020500524176E21500620F6
:1039D000186E1200000E0A6E08BEF3EF1CF0F1EF35
:1039E0001CF0F9EF1CF0076C081ED8B0082A010E75
:1039F0000A6E06BE00EF1DF0FEEF1CF006EF1DF094
:103A0000056C061ED8B0062A010E0A1A000E0C6EAE
:103A1000000E0B6E07500810D8B411EF1DF013EF15
:103A20001DF03BEF1DF0010E096E1BEF1DF0D8904D
:103A300007360836092A08AE20EF1DF022EF1DF0E8
:103A400017EF1DF0D8900B360C360750055C085068
:103A50000658D8A02EEF1DF030EF1DF035EF1DF009
:103A60000750055E0850065A0B80D890083207327E
:103A7000092E22EF1DF00A50D8B441EF1DF043EF9C
:103A80001DF047EF1DF00B6C0C1ED8B00C2A0BC0BC
:103A900005F00CC006F01200E4EC25F00009D8B4E3
:103AA00054EF1DF056EF1DF091EF1DF064EF1DF087
:103AB00057EC26F0ADEF1DF053EC26F0ADEF1DF006
:103AC0004BEC26F0ADEF1DF012C10EF013C10FF05C
:103AD00002D875EF1DF00500FA6E01010651FD6E6A
:103AE0000751FE6EFF6AFA501200106E116A1150F3
:103AF000000AD8B47EEF1DF060EF1DF01050010AEF
:103B0000D8B460EF1DF0030AD8B458EF1DF0010AD5
:103B1000D8B45CEF1DF0070AD8B460EF1DF060EF79
:103B20001DF0010123911DC1D9FF1EC1DAFF1D4BFC
:103B30001E2BDF505BEC26F001011F07D8A02007E9
:103B40001F512011D8A4A7EF1DF0A9EF1DF0ACEF75
:103B50001DF0060EADEF1DF0030E12002E0E5824C0
:103B6000D96EDA6A010EDA22000EDF6EABA4BBEF6B
:103B70001DF0BDEF1DF0D1EF1DF02E0E5824D96EB3
:103B8000DA6A010EDA220101DF8202D8D1EF1DF0DC
:103B90000500FA6EB151FD6EB251FE6EFF6AFA5029
:103BA0001200ABA2D6EF1DF0D8EF1DF0ECEF1DF028
:103BB0002E0E5824D96EDA6A010EDA220101DF8452
:103BC00002D8ECEF1DF00500FA6EAF51FD6EB0515A
:103BD000FE6EFF6AFA5012002E0E5824D96EDA6A71
:103BE000010EDA22DF50D8B4F8EF1DF0FAEF1DF025
:103BF00009EF1EF002D807EF1EF00500FA6E010172
:103C0000AD51FD6EAE51FE6EFF6AFA5012000BEF21
:103C10001EF0F7EC24F01200000E0A6E06BE15EF3F
:103C20001EF013EF1EF01BEF1EF0056C061ED8B041
:103C3000062A010E0A6E08BE22EF1EF020EF1EF0CB
:103C400026EF1EF0076C081ED8B0082A075008108F
:103C5000D8B42DEF1EF02FEF1EF053EF1EF0010E23
:103C6000096E37EF1EF0D89007360836092A08AEDD
:103C70003CEF1EF03EEF1EF033EF1EF00750055CE8
:103C800008500658D8A047EF1EF049EF1EF04DEF40
:103C90001EF00750055E0850065AD89008320732C9
:103CA000092E3EEF1EF00A50D8B459EF1EF05BEF1C
:103CB0001EF05FEF1EF0056C061ED8B0062A05C088
:103CC00005F006C006F01200000E05140D6E000E81
:103CD00006140E6E800E07140F6E7F0E0814106E01
:103CE0000D500E100F101010D8A479EF1EF07BEFBE
:103CF0001EF083EF1EF0000E056E000E066E000E25
:103D0000076E000E086E000E09140D6E000E0A14E8
:103D10000E6E800E0B140F6E7F0E0C14106E0D5075
:103D20000E100F101010D8A498EF1EF09AEF1EF08E
:103D3000A2EF1EF0000E096E000E0A6E000E0B6E52
:103D4000000E0C6E095005180FE10A5006180CE120
:103D50000B50071809E10C500818D8B4B2EF1EF048
:103D6000B4EF1EF0B7EF1EF0D890B8EF1EF0D88079
:103D700012009FEC25F021C025F022C026F0000E95
:103D800026BEFF0E276E286E010E47EC18F025C0E8
:103D900075F026C076F027C077F028C078F0F1C023
:103DA00025F0F2C026F0276A286A000E47EC18F0CA
:103DB00025C037F026C038F027C039F028C03AF0C7
:103DC00075C033F076C034F077C035F078C036F087
:103DD0006FEC15F033C04CF034C04DF035C04EF0F0
:103DE00036C04FF0000E506E000E516EC80E526E6F
:103DF000420E536E59EC13F04CC075F04DC076F086
:103E00004EC077F04FC078F075C071F076C072F098
:103E100077C073F078C074F012006FEC26F01DC10B
:103E2000D9FF1EC1DAFFDF6E01011D4B1E2B1F07DC
:103E3000D8A020071F512011D8B421EF1FF023EF85
:103E40001FF028EF1FF05FEC26F0050E5FEF1FF06C
:103E5000238733EF1FF03FEC26F05FEF1FF043ECBA
:103E600026F05FEF1FF00CC10EF00DC10FF002D86D
:103E700043EF1FF00500FA6E0051FD6E0151FE6E1A
:103E8000FF6AFA501200106E116A1150000AD8B47D
:103E90004CEF1FF02FEF1FF01050010AD8B42FEF96
:103EA0001FF0030AD8B42BEF1FF0010AD8B42BEF90
:103EB0001FF0070AD8B42FEF1FF02FEF1FF01200EA
:103EC00009500A10D8B467EF1FF069EF1FF072EFC6
:103ED0001FF009500A10D8A470EF1FF072EF1FF006
:103EE00077EF1FF0075018EC26F0AAEF1FF020EE36
:103EF00004F00950D9260A50DA22DE50DE10D8B478
:103F000084EF1FF086EF1FF0A1EF1FF020EE04F00A
:103F10000950D9260A50DA2210EE02F00950E126A3
:103F20000A50E222DE50E65CE650800A0F6EDE5058
:103F3000800A0F58D8B09FEF1FF0A1EF1FF0AAEF33
:103F40001FF020EE02F00950D9260A50DA22DE2AAC
:103F5000000EDD221200056E010E066E010123B572
:103F6000B4EF1FF0B6EF1FF0F0EF1FF005C01CF12B
:103F70002393238523910E0E216F010E1B6FF40EE8
:103F80001A6F2387EA0E006F4C0E016F000E0C6F44
:103F9000000E0D6FEA0E026F4C0E036F000E0E6FD7
:103FA000000E0F6FEA0E046F4C0E056F000E106FBF
:103FB000000E116FEA0E066F4C0E076F000E126FA7
:103FC000000E136FE60E086F4C0E096F000E146F93
:103FD000000E156F81EC26F058EC25F0000E066EF1
:103FE000065012001B6E000E1D6E000E1C6E1B5044
:103FF000ABEC1FF00009D8B400EF20F002EF20F086
:10400000F7EF1FF03E0E0A6E490E0B6E1C0E0C6E83
:10401000000E0D6EC3EC25F0160E056E000E066E3A
:10402000000E086E010E076E46EC25F0000E0A6EBB
:10403000000E0B6E000E0C6E000E0D6EB7EC25F030
:104040003BEC26F0E1EC24F0E806D8B42AEF20F0AF
:104050002CEF20F022EF20F01DC018F01C50196E3C
:104060001850166E19C017F0120093EC25F021C0FD
:1040700025F022C026F0000E26BEFF0E276E286E09
:10408000010E47EC18F025C075F026C076F027C069
:1040900077F028C078F075C04CF076C04DF077C04E
:1040A0004EF078C04FF0EFC025F0F0C026F0276A40
:1040B000286A000E47EC18F025C050F026C051F0D9
:1040C00027C052F028C053F059EC13F04CC075F0E3
:1040D0004DC076F04EC077F04FC078F075C071F0EB
:1040E00076C072F077C073F078C074F012000101EE
:1040F000238788EF20F04FEC26F0B4EF20F06DEC32
:1041000026F0030EB4EF20F04BEC26F0B4EF20F0D5
:104110000CC10EF00DC10FF002D898EF20F0050091
:10412000FA6E0051FD6E0151FE6EFF6AFA501200E8
:10413000106E116A1150000AD8B4A1EF20F084EF7C
:1041400020F01050010AD8B484EF20F0030AD8B44C
:104150007BEF20F0010AD8B47BEF20F0070AD8B437
:104160007FEF20F084EF20F01200096E055006105A
:10417000D8B4BDEF20F0BFEF20F0D9EF20F0095008
:10418000020D000EF324D96E010EF420DA6E05C084
:10419000DEFF06C0DDFF0950020D0C0EF324D96EC0
:1041A000010EF420DA6E07C0DEFF08C0DDFFF1EF7C
:1041B00020F00950020D000EF324D96E010EF420F8
:1041C000DA6EEA0EDE6E4C0EDD6E0950020D0C0E3C
:1041D000F324D96E010EF420DA6E000EDE6E000EAE
:1041E000DD6E12009D9A5C0E056E3B0E066E27EC8E
:1041F00026F09D984A0E056E470E066E22EC26F0BC
:10420000080EB86E900EAB6E240EAC6ECF0EAF6E75
:10421000000EB06E0C0E056E4D0E066E31EC26F0E3
:10422000CA0E056E4C0E066E2CEC26F0D00E056EF6
:104230004C0E066E36EC26F0000E0001FB6F000EF1
:104240005A6E000E596E080EFE6F000E586E000E6C
:10425000576E000E566E9D8A1200ABEC25F021C001
:1042600075F022C076F075C054F076C055F0553424
:104270005532543255345532543255345532543205
:1042800054C025F055C026F0000E26BEFF0E276E46
:10429000286E010E47EC18F025C04CF026C04DF0FA
:1042A00027C04EF028C04FF06F0E506E120E516EA8
:1042B000830E526E3B0E536E59EC13F04CC071F0EE
:1042C0004DC072F04EC073F04FC074F0120081EC1C
:1042D00026F0010123A16FEF21F071EF21F07EEFB5
:1042E00021F0E4EC25F00009D8B479EF21F07BEF60
:1042F00021F07EEF21F00F0E0101216F010121510C
:10430000020D010EF324F66E100EF420F76EF86A1B
:10431000000EF8220900F5CF12F00900F5CF13F0D6
:1043200002D89CEF21F00500FA6E1250FD6E13507A
:10433000FE6EFF6AFA5012000101216F12000101A6
:104340002391020E226FADEF21F04FEC26F0D1EF5A
:1043500021F04BEC26F0D1EF21F010C10EF011C18D
:104360000FF002D8BDEF21F00500FA6E0451FD6E8A
:104370000551FE6EFF6AFA501200106E116A11505C
:10438000000AD8B4C6EF21F0A9EF21F01050020ABC
:10439000D8B4A5EF21F0010AD8B4A5EF21F0A9EF18
:1043A00021F01200D9C0DDF0DAC0DEF0000E00010D
:1043B000E86F000EE76FF0EF21F0D7C0C1F0D8C072
:1043C000C2F0DD0EC36F000EC46FDBC0C5F0DCC0F1
:1043D000C6F002EC11F00001C151E727C251E823F9
:1043E000DDC0F6FFDEC0F7FFF86A0800F5500009EF
:1043F000D8A4FDEF21F0FFEF21F0DDEF21F0E7C0C1
:10440000D7F0E8C0D8F01200BF0E0D6EFF0E0E6E92
:104410000BC00FF00CC010F00D500F260E501022E4
:1044200010500AE11A0E0F5CD8A019EF22F01CEF11
:1044300022F0010E1DEF22F0000E116E126A1150D3
:104440001210D8B426EF22F028EF22F02FEF22F03E
:10445000200E0B100B6E0C500C6E33EF22F00BC0C5
:104460000BF00CC00CF0120007C00BF008C00CF0F1
:1044700005C00DF006C00EF00B50096E0C500A6E10
:104480000B4A0C2A09C0F6FF0AC0F7FF000EF86EAF
:104490000DC0D9FF0EC0DAFF0D4A0E2A0F0EF764C9
:1044A00003D00800F55005D0F6CFE9FFF7CFEAFFBB
:1044B000EF50DF6EDF50D8A460EF22F062EF22F001
:1044C0003CEF22F01200080EF66E4D0EF76E000E55
:1044D000F86E0900F5CFBDF10900F5CFBEF1060E6B
:1044E000F66E4D0EF76E000EF86E0900F5CFFCF07B
:1044F0000900F5CFFDF001EE00F0AD0EEE6AE80622
:10450000FDE100EEE3F0190EEE6AE806FDE15A6AFD
:10451000596A586A576A566A5B905B920001EEEFDF
:1045200019F01A6E1A50ABEC1FF00009D8B49BEFCB
:1045300022F09DEF22F092EF22F016C005F017C096
:1045400006F018C007F019C008F046EC25F0000E80
:104550000A6E000E0B6E000E0C6E000E0D6EB7ECA8
:1045600025F03BEC26F0E1EC24F0E806D8B4BBEFF4
:1045700022F0BDEF22F0B3EF22F01200056E000131
:10458000FE51D8B4C6EF22F0C8EF22F0BFEF22F000
:104590009DB8CDEF22F0CFEF22F0D3EF22F005C08F
:1045A000ADFFE8EF22F09D983E0E5A24D96EDA6AEC
:1045B000010EDA2205C0DFFF5A2A070E5A64E3EF24
:1045C00022F0E5EF22F0E7EF22F0000E5A6EFE0730
:1045D0009D88120087EC25F021C054F022C055F0D0
:1045E00054C025F055C026F0276A286A000E47EC13
:1045F00018F025C04CF026C04DF027C04EF028C062
:104600004FF00A0E506ED70E516E230E526E3C0EB6
:10461000536E59EC13F04CC071F04DC072F04EC0A7
:1046200073F04FC074F01200010E0B6E200E0518CF
:104630000610D8B41EEF23F020EF23F039EF23F05B
:10464000F70E076EFF0E086E05C009F006C00AF0EF
:104650000750092608500A220A5009E1050E095C94
:10466000D8A035EF23F037EF23F039EF23F0000E19
:104670000B6E0BC005F0066A1200000E0001751BE0
:10468000000E761B000E771B800E781B71C005F0A4
:1046900072C006F073C007F074C008F075C009F06E
:1046A00076C00AF077C00BF078C00CF0A2EC0EF0E8
:1046B00005C071F006C072F007C073F008C074F056
:1046C0001200000E166E000E156E72EF23F014C06D
:1046D00007F0086A12C009F013C00AF060EC1FF07E
:1046E000154A162A15501024D96E16501120DA6E6C
:1046F000DF50146E1450D8A480EF23F082EF23F023
:1047000067EF23F01200146E010E156E010123B342
:104710008CEF23F08EEF23F0A3EF23F02383000E22
:10472000156E1450D8B497EF23F099EF23F09DEF56
:1047300023F0010E216F9FEF23F0020E216F7BEC1F
:1047400026F078EC25F015501200080E0001FE61ED
:10475000ACEF23F0AEEF23F0C4EF23F03E0E59246C
:10476000D96EDA6A010EDA22DF50AD6E592A070ED1
:104770005964BDEF23F0BFEF23F0C1EF23F0000E2B
:10478000596EFE2BC5EF23F09D98120020EE02F02B
:104790000E50D9260F50DA22DECF05F0DDCF06F01D
:1047A0000EC0D9FF0FC0DAFFDECF07F0DDCF08F073
:1047B00046EC25F0000E0A6E000E0B6E000E0C6E1D
:1047C000000E0D6EC3EC25F0020E1200BF0E076E38
:1047D000FF0E086E05C009F006C00AF00750092652
:1047E00008500A220A500AE11A0E095CD8A0FBEF11
:1047F00023F0FEEF23F0010EFFEF23F0000E056E15
:10480000066A12000550061007100810D8B40BEF06
:1048100024F00DEF24F015EF24F0000E051A000E21
:10482000061A000E071A800E081A05C005F006C009
:1048300006F007C007F008C008F01200D00E076E9F
:10484000FF0E086E05C009F006C00AF007500926E1
:1048500008500A220A500AE10A0E095CD8A033EF78
:1048600024F036EF24F0010E37EF24F0000E056E31
:10487000066A1200100E0001F46F000EF36F000EB6
:10488000F26F640EF16F000EF06F020EEF6FF3C067
:104890001BF0F4C01CF0050E33EC25F0390E1C6E35
:1048A0009F0E1B6E000E33EC25F0120005C007F0C2
:1048B00006C008F05EEF24F0054A062A05C0D9FFBD
:1048C00006C0DAFFDF50D8A468EF24F06AEF24F0C6
:1048D0005CEF24F00750055C056E08500658066E24
:1048E0001200000E8D6E000E8C6E000E896E000E92
:1048F0008A6E000E8B6E070E966E92689368BF0EDE
:10490000946E95687E681F0E7F6E000E7C6EF18E31
:1049100012000EC005F00FC006F0000E086E010E6A
:10492000076E46EC25F0000E0A6E000E0B6E000EB0
:104930000C6E000E0D6EC3EC25F0040E12000EC0BE
:1049400005F00FC006F0000E086E020E076E46EC72
:1049500025F0000E0A6E000E0B6E000E0C6E000E9F
:104960000D6EC3EC25F0020E12000EC005F00FC054
:1049700006F0000E086E010E076E46EC25F0000EE4
:104980000A6E000E0B6E000E0C6E000E0D6EC3EC68
:1049900025F0020E12000EC005F00FC006F0000E4A
:1049A000086E020E076E46EC25F0000E0A6E000E31
:1049B0000B6E000E0C6E000E0D6EC3EC25F0040E97
:1049C0001200010E056E010123B3E9EF24F0EBEFB5
:1049D00024F0F5EF24F023951C6981EC26F07DECA2
:1049E00026F07FEC26F022C105F005501200360EAD
:1049F0005824D96EDA6A010EDA22AECFDFFF582AC8
:104A0000070E586406EF25F008EF25F00AEF25F0B1
:104A1000000E586E562A1200B90E0001DF6F010E0B
:104A2000E06F000ED76F000ED86FB7C1D9F0B8C1D4
:104A3000DAF0DF0EDB6F000EDC6FD2EC21F012003B
:104A400005500702F3CF09F0F4CF0AF00550080231
:104A5000F3500A2606500702F3500A2609C005F053
:104A60000AC006F012001D6E1DC01EF01C501F6E05
:104A70001BC020F01E0E166E000E176E000E196E73
:104A8000030E186E400E91EC22F01200010123A7D4
:104A90004CEF25F04EEF25F057EF25F005C01DF146
:104AA00006C01EF107C01FF108C020F123971200B5
:104AB000C6BA5DEF25F05FEF25F068EF25F0000E38
:104AC000C76E080EC66E000EC56E130EC86EC68A7F
:104AD0001200206E20C016F0400EF2EC1FF01EC037
:104AE000D9FF1FC0DAFF16C0DEFF17C0DDFF1200BE
:104AF0007EEF25F0EEEC25F067EC21F0010123B309
:104B000084EF25F086EF25F07AEF25F01200230ED2
:104B10001E6E000E1F6E010E69EC25F023C021F001
:104B200024C022F01200000E1C6E230E1B6E030E1A
:104B300033EC25F023C021F024C022F01200230E14
:104B40001E6E000E1F6E040E69EC25F023C021F0CE
:104B500024C022F01200230E1E6E000E1F6E020EE5
:104B600069EC25F023C021F024C022F012000AC015
:104B700005F00BC006F00CC007F00DC008F0020EE7
:104B8000B5EC20F012000AC005F00BC006F00CC016
:104B900007F00DC008F0000EB5EC20F012006BEC31
:104BA00026F0DAEC25F071EC24F01DEC26F0F2ECA6
:104BB00020F01200000EC76E080EC66E000EC56E05
:104BC000130EC86EC69A1200C5BCE9EF25F0ECEFD3
:104BD00025F0010EEDEF25F0000E12009EA6F3EF7A
:104BE00025F0F5EF25F0EEEF25F01200010123810D
:104BF0001C511C255BEC26F0030E120001012381E1
:104C0000D8801C355BEC26F0050E120001012393C1
:104C1000000E226F0E0E12000101239171EC26F09E
:104C2000040E120001012393000E226F0E0E1200DB
:104C3000066E0650BEEC22F01200600ED36E000E1F
:104C40009B6E120005C0B5F106C0B6F1120005C09A
:104C5000B3F106C0B4F1120005C0AFF106C0B0F167
:104C6000120005C0B1F106C0B2F1120005C0ADF1ED
:104C700006C0AEF11200000E83EC23F0120062ECCD
:104C800026F0090E120062EC26F00A0E12005FEC0C
:104C900026F0050E120077EC26F0000E120079ECDB
:104CA00026F0010E120079EC26F0020E120079ECCB
:104CB00026F0010E1200056E05C0C9FF1200C59A4C
:104CC000C5881200C58AC5881200AB98AB8812004F
:104CD000F7EC24F01200D09E12009E861200C950FC
:104CE0001200C5861200050E1200010E1200C584C6
:104CF0001200C5821200C58012009D961200C69A4D
:0E4D000012009E9612004000400012001200A9
:020000040020DA
:08000000FFFFFFFFFFFFFFFF00
:020000040030CA
:0E000000FF081F1EFF0B81FF0FC00FE00F4017
:00000001FF
